{
  "_format": "hh-sol-artifact-1",
  "contractName": "VotingSystem",
  "sourceName": "contracts/VotingSystem.sol",
  "abi": [
    {
      "inputs": [],
      "stateMutability": "nonpayable",
      "type": "constructor"
    },
    {
      "anonymous": false,
      "inputs": [
        {
          "indexed": false,
          "internalType": "address",
          "name": "manager",
          "type": "address"
        },
        {
          "indexed": false,
          "internalType": "uint256",
          "name": "amount",
          "type": "uint256"
        }
      ],
      "name": "FundsAdded",
      "type": "event"
    },
    {
      "anonymous": false,
      "inputs": [
        {
          "indexed": false,
          "internalType": "address",
          "name": "user",
          "type": "address"
        },
        {
          "indexed": false,
          "internalType": "string",
          "name": "username",
          "type": "string"
        },
        {
          "indexed": false,
          "internalType": "enum VotingSystem.Role",
          "name": "role",
          "type": "uint8"
        }
      ],
      "name": "UserAdded",
      "type": "event"
    },
    {
      "anonymous": false,
      "inputs": [
        {
          "indexed": false,
          "internalType": "address",
          "name": "user",
          "type": "address"
        }
      ],
      "name": "UserRemoved",
      "type": "event"
    },
    {
      "anonymous": false,
      "inputs": [
        {
          "indexed": false,
          "internalType": "uint256",
          "name": "voteId",
          "type": "uint256"
        }
      ],
      "name": "VoteClosed",
      "type": "event"
    },
    {
      "anonymous": false,
      "inputs": [
        {
          "indexed": false,
          "internalType": "uint256",
          "name": "voteId",
          "type": "uint256"
        },
        {
          "indexed": false,
          "internalType": "string",
          "name": "question",
          "type": "string"
        }
      ],
      "name": "VoteCreated",
      "type": "event"
    },
    {
      "anonymous": false,
      "inputs": [
        {
          "indexed": false,
          "internalType": "uint256",
          "name": "voteId",
          "type": "uint256"
        },
        {
          "indexed": false,
          "internalType": "address",
          "name": "voter",
          "type": "address"
        },
        {
          "indexed": false,
          "internalType": "uint256",
          "name": "option",
          "type": "uint256"
        }
      ],
      "name": "Voted",
      "type": "event"
    },
    {
      "anonymous": false,
      "inputs": [
        {
          "indexed": false,
          "internalType": "uint256",
          "name": "requestId",
          "type": "uint256"
        }
      ],
      "name": "WithdrawalRequestApproved",
      "type": "event"
    },
    {
      "anonymous": false,
      "inputs": [
        {
          "indexed": false,
          "internalType": "uint256",
          "name": "requestId",
          "type": "uint256"
        },
        {
          "indexed": false,
          "internalType": "address",
          "name": "requester",
          "type": "address"
        },
        {
          "indexed": false,
          "internalType": "uint256",
          "name": "amount",
          "type": "uint256"
        }
      ],
      "name": "WithdrawalRequestCreated",
      "type": "event"
    },
    {
      "anonymous": false,
      "inputs": [
        {
          "indexed": false,
          "internalType": "uint256",
          "name": "requestId",
          "type": "uint256"
        }
      ],
      "name": "WithdrawalRequestRejected",
      "type": "event"
    },
    {
      "inputs": [],
      "name": "addFunds",
      "outputs": [],
      "stateMutability": "payable",
      "type": "function"
    },
    {
      "inputs": [
        {
          "internalType": "address",
          "name": "_user",
          "type": "address"
        },
        {
          "internalType": "string",
          "name": "_username",
          "type": "string"
        },
        {
          "internalType": "enum VotingSystem.Role",
          "name": "_role",
          "type": "uint8"
        }
      ],
      "name": "addUser",
      "outputs": [],
      "stateMutability": "nonpayable",
      "type": "function"
    },
    {
      "inputs": [
        {
          "internalType": "address",
          "name": "",
          "type": "address"
        }
      ],
      "name": "admins",
      "outputs": [
        {
          "internalType": "bool",
          "name": "",
          "type": "bool"
        }
      ],
      "stateMutability": "view",
      "type": "function"
    },
    {
      "inputs": [
        {
          "internalType": "uint256",
          "name": "_requestId",
          "type": "uint256"
        }
      ],
      "name": "approveWithdrawalRequest",
      "outputs": [],
      "stateMutability": "nonpayable",
      "type": "function"
    },
    {
      "inputs": [
        {
          "internalType": "address",
          "name": "",
          "type": "address"
        }
      ],
      "name": "authorizedUsers",
      "outputs": [
        {
          "internalType": "string",
          "name": "username",
          "type": "string"
        },
        {
          "internalType": "enum VotingSystem.Role",
          "name": "role",
          "type": "uint8"
        }
      ],
      "stateMutability": "view",
      "type": "function"
    },
    {
      "inputs": [
        {
          "internalType": "uint256",
          "name": "_voteId",
          "type": "uint256"
        }
      ],
      "name": "closeVote",
      "outputs": [],
      "stateMutability": "nonpayable",
      "type": "function"
    },
    {
      "inputs": [],
      "name": "companyBalance",
      "outputs": [
        {
          "internalType": "uint256",
          "name": "",
          "type": "uint256"
        }
      ],
      "stateMutability": "view",
      "type": "function"
    },
    {
      "inputs": [
        {
          "internalType": "string",
          "name": "_question",
          "type": "string"
        },
        {
          "internalType": "string[]",
          "name": "_options",
          "type": "string[]"
        },
        {
          "internalType": "uint256",
          "name": "_closingDate",
          "type": "uint256"
        }
      ],
      "name": "createVote",
      "outputs": [],
      "stateMutability": "nonpayable",
      "type": "function"
    },
    {
      "inputs": [
        {
          "internalType": "string",
          "name": "_description",
          "type": "string"
        },
        {
          "internalType": "uint256",
          "name": "_amount",
          "type": "uint256"
        },
        {
          "internalType": "string",
          "name": "_attachment",
          "type": "string"
        }
      ],
      "name": "createWithdrawalRequest",
      "outputs": [],
      "stateMutability": "nonpayable",
      "type": "function"
    },
    {
      "inputs": [],
      "name": "getAllUsers",
      "outputs": [
        {
          "internalType": "address[]",
          "name": "",
          "type": "address[]"
        }
      ],
      "stateMutability": "view",
      "type": "function"
    },
    {
      "inputs": [],
      "name": "getCompanyBalance",
      "outputs": [
        {
          "internalType": "uint256",
          "name": "",
          "type": "uint256"
        }
      ],
      "stateMutability": "view",
      "type": "function"
    },
    {
      "inputs": [],
      "name": "getRequestCount",
      "outputs": [
        {
          "internalType": "uint256",
          "name": "",
          "type": "uint256"
        }
      ],
      "stateMutability": "view",
      "type": "function"
    },
    {
      "inputs": [
        {
          "internalType": "address",
          "name": "_user",
          "type": "address"
        }
      ],
      "name": "getUserRole",
      "outputs": [
        {
          "internalType": "enum VotingSystem.Role",
          "name": "",
          "type": "uint8"
        }
      ],
      "stateMutability": "view",
      "type": "function"
    },
    {
      "inputs": [
        {
          "internalType": "address",
          "name": "_user",
          "type": "address"
        }
      ],
      "name": "getUsername",
      "outputs": [
        {
          "internalType": "string",
          "name": "",
          "type": "string"
        }
      ],
      "stateMutability": "view",
      "type": "function"
    },
    {
      "inputs": [
        {
          "internalType": "uint256",
          "name": "_voteId",
          "type": "uint256"
        }
      ],
      "name": "getVoteDetails",
      "outputs": [
        {
          "internalType": "uint256",
          "name": "id",
          "type": "uint256"
        },
        {
          "internalType": "string",
          "name": "question",
          "type": "string"
        },
        {
          "internalType": "string[]",
          "name": "options",
          "type": "string[]"
        },
        {
          "internalType": "uint256[]",
          "name": "votesPerOption",
          "type": "uint256[]"
        },
        {
          "internalType": "uint256",
          "name": "closingDate",
          "type": "uint256"
        },
        {
          "internalType": "bool",
          "name": "isOpen",
          "type": "bool"
        }
      ],
      "stateMutability": "view",
      "type": "function"
    },
    {
      "inputs": [],
      "name": "getVotesCount",
      "outputs": [
        {
          "internalType": "uint256",
          "name": "",
          "type": "uint256"
        }
      ],
      "stateMutability": "view",
      "type": "function"
    },
    {
      "inputs": [
        {
          "internalType": "uint256",
          "name": "_requestId",
          "type": "uint256"
        }
      ],
      "name": "getWithdrawalRequest",
      "outputs": [
        {
          "internalType": "uint256",
          "name": "id",
          "type": "uint256"
        },
        {
          "internalType": "address",
          "name": "requester",
          "type": "address"
        },
        {
          "internalType": "string",
          "name": "description",
          "type": "string"
        },
        {
          "internalType": "uint256",
          "name": "amount",
          "type": "uint256"
        },
        {
          "internalType": "string",
          "name": "attachment",
          "type": "string"
        },
        {
          "internalType": "enum VotingSystem.RequestStatus",
          "name": "status",
          "type": "uint8"
        }
      ],
      "stateMutability": "view",
      "type": "function"
    },
    {
      "inputs": [
        {
          "internalType": "uint256",
          "name": "_voteId",
          "type": "uint256"
        },
        {
          "internalType": "address",
          "name": "_user",
          "type": "address"
        }
      ],
      "name": "hasUserVoted",
      "outputs": [
        {
          "internalType": "bool",
          "name": "",
          "type": "bool"
        }
      ],
      "stateMutability": "view",
      "type": "function"
    },
    {
      "inputs": [
        {
          "internalType": "uint256",
          "name": "_voteId",
          "type": "uint256"
        },
        {
          "internalType": "address",
          "name": "_user",
          "type": "address"
        }
      ],
      "name": "isUserAuthorized",
      "outputs": [
        {
          "internalType": "bool",
          "name": "",
          "type": "bool"
        }
      ],
      "stateMutability": "view",
      "type": "function"
    },
    {
      "inputs": [],
      "name": "owner",
      "outputs": [
        {
          "internalType": "address",
          "name": "",
          "type": "address"
        }
      ],
      "stateMutability": "view",
      "type": "function"
    },
    {
      "inputs": [
        {
          "internalType": "uint256",
          "name": "_requestId",
          "type": "uint256"
        }
      ],
      "name": "rejectWithdrawalRequest",
      "outputs": [],
      "stateMutability": "nonpayable",
      "type": "function"
    },
    {
      "inputs": [
        {
          "internalType": "address",
          "name": "_user",
          "type": "address"
        }
      ],
      "name": "removeUser",
      "outputs": [],
      "stateMutability": "nonpayable",
      "type": "function"
    },
    {
      "inputs": [],
      "name": "requestCount",
      "outputs": [
        {
          "internalType": "uint256",
          "name": "",
          "type": "uint256"
        }
      ],
      "stateMutability": "view",
      "type": "function"
    },
    {
      "inputs": [
        {
          "internalType": "uint256",
          "name": "",
          "type": "uint256"
        }
      ],
      "name": "userAddresses",
      "outputs": [
        {
          "internalType": "address",
          "name": "",
          "type": "address"
        }
      ],
      "stateMutability": "view",
      "type": "function"
    },
    {
      "inputs": [
        {
          "internalType": "uint256",
          "name": "_voteId",
          "type": "uint256"
        },
        {
          "internalType": "uint256",
          "name": "_optionIndex",
          "type": "uint256"
        }
      ],
      "name": "vote",
      "outputs": [],
      "stateMutability": "nonpayable",
      "type": "function"
    },
    {
      "inputs": [],
      "name": "voteCount",
      "outputs": [
        {
          "internalType": "uint256",
          "name": "",
          "type": "uint256"
        }
      ],
      "stateMutability": "view",
      "type": "function"
    },
    {
      "inputs": [
        {
          "internalType": "uint256",
          "name": "",
          "type": "uint256"
        }
      ],
      "name": "votes",
      "outputs": [
        {
          "internalType": "uint256",
          "name": "id",
          "type": "uint256"
        },
        {
          "internalType": "string",
          "name": "question",
          "type": "string"
        },
        {
          "internalType": "uint256",
          "name": "closingDate",
          "type": "uint256"
        },
        {
          "internalType": "bool",
          "name": "isOpen",
          "type": "bool"
        }
      ],
      "stateMutability": "view",
      "type": "function"
    },
    {
      "inputs": [
        {
          "internalType": "uint256",
          "name": "",
          "type": "uint256"
        }
      ],
      "name": "withdrawalRequests",
      "outputs": [
        {
          "internalType": "uint256",
          "name": "id",
          "type": "uint256"
        },
        {
          "internalType": "address payable",
          "name": "requester",
          "type": "address"
        },
        {
          "internalType": "string",
          "name": "description",
          "type": "string"
        },
        {
          "internalType": "uint256",
          "name": "amount",
          "type": "uint256"
        },
        {
          "internalType": "string",
          "name": "attachment",
          "type": "string"
        },
        {
          "internalType": "enum VotingSystem.RequestStatus",
          "name": "status",
          "type": "uint8"
        }
      ],
      "stateMutability": "view",
      "type": "function"
    }
  ],
  "bytecode": "0x608060405234801561001057600080fd5b50336000806101000a81548173ffffffffffffffffffffffffffffffffffffffff021916908373ffffffffffffffffffffffffffffffffffffffff16021790555060405180604001604052806040518060400160405280600581526020017f4f776e65720000000000000000000000000000000000000000000000000000008152508152602001600160028111156100ab576100aa6101f6565b5b815250600460003373ffffffffffffffffffffffffffffffffffffffff1673ffffffffffffffffffffffffffffffffffffffff16815260200190815260200160002060008201518160000190816101029190610475565b5060208201518160010160006101000a81548160ff0219169083600281111561012e5761012d6101f6565b5b02179055509050506001600560003373ffffffffffffffffffffffffffffffffffffffff1673ffffffffffffffffffffffffffffffffffffffff16815260200190815260200160002060006101000a81548160ff0219169083151502179055506008339080600181540180825580915050600190039060005260206000200160009091909190916101000a81548173ffffffffffffffffffffffffffffffffffffffff021916908373ffffffffffffffffffffffffffffffffffffffff160217905550610547565b7f4e487b7100000000000000000000000000000000000000000000000000000000600052602160045260246000fd5b600081519050919050565b7f4e487b7100000000000000000000000000000000000000000000000000000000600052604160045260246000fd5b7f4e487b7100000000000000000000000000000000000000000000000000000000600052602260045260246000fd5b600060028204905060018216806102a657607f821691505b6020821081036102b9576102b861025f565b5b50919050565b60008190508160005260206000209050919050565b60006020601f8301049050919050565b600082821b905092915050565b6000600883026103217fffffffffffffffffffffffffffffffffffffffffffffffffffffffffffffffff826102e4565b61032b86836102e4565b95508019841693508086168417925050509392505050565b6000819050919050565b6000819050919050565b600061037261036d61036884610343565b61034d565b610343565b9050919050565b6000819050919050565b61038c83610357565b6103a061039882610379565b8484546102f1565b825550505050565b600090565b6103b56103a8565b6103c0818484610383565b505050565b5b818110156103e4576103d96000826103ad565b6001810190506103c6565b5050565b601f821115610429576103fa816102bf565b610403846102d4565b81016020851015610412578190505b61042661041e856102d4565b8301826103c5565b50505b505050565b600082821c905092915050565b600061044c6000198460080261042e565b1980831691505092915050565b6000610465838361043b565b9150826002028217905092915050565b61047e82610225565b67ffffffffffffffff81111561049757610496610230565b5b6104a1825461028e565b6104ac8282856103e8565b600060209050601f8311600181146104df57600084156104cd578287015190505b6104d78582610459565b86555061053f565b601f1984166104ed866102bf565b60005b82811015610515578489015182556001820191506020850194506020810190506104f0565b86831015610532578489015161052e601f89168261043b565b8355505b6001600288020188555050505b505050505050565b614463806105566000396000f3fe6080604052600436106101b75760003560e01c80635df81330116100ec578063a26759cb1161008a578063c638407111610064578063c638407114610648578063ce43c03214610673578063dc296ae1146106b0578063e2842d79146106ed576101b7565b8063a26759cb146105d3578063ae485651146105dd578063b384abef1461061f576101b7565b80638da5cb5b116100c65780638da5cb5b14610514578063937b25811461053f57806398575188146105815780639af86345146105aa576101b7565b80635df81330146104825780636e48a035146104c25780637b6a4b07146104eb576101b7565b80633fad18341161015957806344ba0fe81161013357806344ba0fe8146103ad578063502c9bd5146103d857806354a1b431146104155780635badbe4c14610457576101b7565b80633fad18341461031c57806340d2685414610347578063429b62e514610370576101b7565b80631b605b86116101955780631b605b861461024c57806327820851146102775780632f121ada146102b45780633c192689146102df576101b7565b80630c135530146101bc57806315dd015e146101e55780631828983a1461020e575b600080fd5b3480156101c857600080fd5b506101e360048036038101906101de9190612dd0565b610718565b005b3480156101f157600080fd5b5061020c60048036038101906102079190612f41565b6109e2565b005b34801561021a57600080fd5b506102356004803603810190610230919061302a565b610c51565b60405161024392919061314d565b60405180910390f35b34801561025857600080fd5b50610261610d0a565b60405161026e919061318c565b60405180910390f35b34801561028357600080fd5b5061029e6004803603810190610299919061302a565b610d14565b6040516102ab91906131a7565b60405180910390f35b3480156102c057600080fd5b506102c9610d6d565b6040516102d6919061318c565b60405180910390f35b3480156102eb57600080fd5b50610306600480360381019061030191906131c2565b610d73565b604051610313919061321d565b60405180910390f35b34801561032857600080fd5b50610331610e5e565b60405161033e919061318c565b60405180910390f35b34801561035357600080fd5b5061036e6004803603810190610369919061325d565b610e68565b005b34801561037c57600080fd5b506103976004803603810190610392919061302a565b6111ab565b6040516103a4919061321d565b60405180910390f35b3480156103b957600080fd5b506103c26111cb565b6040516103cf919061318c565b60405180910390f35b3480156103e457600080fd5b506103ff60048036038101906103fa91906132cc565b61128b565b60405161040c9190613308565b60405180910390f35b34801561042157600080fd5b5061043c600480360381019061043791906132cc565b6112ca565b60405161044e969594939291906134ed565b60405180910390f35b34801561046357600080fd5b5061046c6114da565b604051610479919061318c565b60405180910390f35b34801561048e57600080fd5b506104a960048036038101906104a491906132cc565b6114e0565b6040516104b99493929190613563565b60405180910390f35b3480156104ce57600080fd5b506104e960048036038101906104e491906132cc565b6115a5565b005b3480156104f757600080fd5b50610512600480360381019061050d91906132cc565b61171b565b005b34801561052057600080fd5b5061052961199d565b6040516105369190613308565b60405180910390f35b34801561054b57600080fd5b50610566600480360381019061056191906132cc565b6119c1565b60405161057896959493929190613618565b60405180910390f35b34801561058d57600080fd5b506105a860048036038101906105a3919061302a565b611b3a565b005b3480156105b657600080fd5b506105d160048036038101906105cc91906132cc565b611ecd565b005b6105db61207a565b005b3480156105e957600080fd5b5061060460048036038101906105ff91906132cc565b6121c7565b60405161061696959493929190613687565b60405180910390f35b34801561062b57600080fd5b50610646600480360381019061064191906136f6565b61235f565b005b34801561065457600080fd5b5061065d61266c565b60405161066a919061318c565b60405180910390f35b34801561067f57600080fd5b5061069a6004803603810190610695919061302a565b612672565b6040516106a79190613736565b60405180910390f35b3480156106bc57600080fd5b506106d760048036038101906106d291906131c2565b6127fc565b6040516106e4919061321d565b60405180910390f35b3480156106f957600080fd5b50610702612867565b60405161070f9190613816565b60405180910390f35b6000600281111561072c5761072b6130d6565b5b600460003373ffffffffffffffffffffffffffffffffffffffff1673ffffffffffffffffffffffffffffffffffffffff16815260200190815260200160002060010160009054906101000a900460ff16600281111561078e5761078d6130d6565b5b036107ce576040517f08c379a00000000000000000000000000000000000000000000000000000000081526004016107c590613884565b60405180910390fd5b6002808111156107e1576107e06130d6565b5b600460003373ffffffffffffffffffffffffffffffffffffffff1673ffffffffffffffffffffffffffffffffffffffff16815260200190815260200160002060010160009054906101000a900460ff166002811115610843576108426130d6565b5b14610883576040517f08c379a000000000000000000000000000000000000000000000000000000000815260040161087a90613916565b60405180910390fd5b600082116108c6576040517f08c379a00000000000000000000000000000000000000000000000000000000081526004016108bd90613982565b60405180910390fd5b600060076000600254815260200190815260200160002090506002548160000181905550338160010160006101000a81548173ffffffffffffffffffffffffffffffffffffffff021916908373ffffffffffffffffffffffffffffffffffffffff1602179055508381600201908161093e9190613bae565b50828160030181905550818160040190816109599190613bae565b5060008160050160006101000a81548160ff02191690836002811115610982576109816130d6565b5b02179055507f295dc19d7593bb5cb1dea614d97e2bdfe640919a62f9dfbd231bf9a090eeeffd60025433856040516109bc93929190613c80565b60405180910390a1600260008154809291906109d790613ce6565b919050555050505050565b600160028111156109f6576109f56130d6565b5b600460003373ffffffffffffffffffffffffffffffffffffffff1673ffffffffffffffffffffffffffffffffffffffff16815260200190815260200160002060010160009054906101000a900460ff166002811115610a5857610a576130d6565b5b14610a98576040517f08c379a0000000000000000000000000000000000000000000000000000000008152600401610a8f90613d7a565b60405180910390fd5b600282511015610add576040517f08c379a0000000000000000000000000000000000000000000000000000000008152600401610ad490613de6565b60405180910390fd5b428111610b1f576040517f08c379a0000000000000000000000000000000000000000000000000000000008152600401610b1690613e78565b60405180910390fd5b60006006600060015481526020019081526020016000209050600154816000018190555083816001019081610b549190613bae565b5082816002019080519060200190610b6d929190612b19565b5081816004018190555060018160050160006101000a81548160ff021916908315150217905550825167ffffffffffffffff811115610baf57610bae612c6f565b5b604051908082528060200260200182016040528015610bdd5781602001602082028036833780820191505090505b50816003019080519060200190610bf5929190612b72565b5060016000815480929190610c0990613ce6565b91905055507f8225b3ad6e66d4c2342e977fbab464beaf3ae9d33b222938cff268dfd7b55b83816000015485604051610c43929190613e98565b60405180910390a150505050565b6004602052806000526040600020600091509050806000018054610c74906139d1565b80601f0160208091040260200160405190810160405280929190818152602001828054610ca0906139d1565b8015610ced5780601f10610cc257610100808354040283529160200191610ced565b820191906000526020600020905b815481529060010190602001808311610cd057829003601f168201915b5050505050908060010160009054906101000a900460ff16905082565b6000600154905090565b6000600460008373ffffffffffffffffffffffffffffffffffffffff1673ffffffffffffffffffffffffffffffffffffffff16815260200190815260200160002060010160009054906101000a900460ff169050919050565b60035481565b6000806002811115610d8857610d876130d6565b5b600460008473ffffffffffffffffffffffffffffffffffffffff1673ffffffffffffffffffffffffffffffffffffffff16815260200190815260200160002060010160009054906101000a900460ff166002811115610dea57610de96130d6565b5b14158015610e5657506006600084815260200190815260200160002060060160008373ffffffffffffffffffffffffffffffffffffffff1673ffffffffffffffffffffffffffffffffffffffff16815260200190815260200160002060009054906101000a900460ff16155b905092915050565b6000600254905090565b60016002811115610e7c57610e7b6130d6565b5b600460003373ffffffffffffffffffffffffffffffffffffffff1673ffffffffffffffffffffffffffffffffffffffff16815260200190815260200160002060010160009054906101000a900460ff166002811115610ede57610edd6130d6565b5b14610f1e576040517f08c379a0000000000000000000000000000000000000000000000000000000008152600401610f1590613d7a565b60405180910390fd5b60006002811115610f3257610f316130d6565b5b600460008573ffffffffffffffffffffffffffffffffffffffff1673ffffffffffffffffffffffffffffffffffffffff16815260200190815260200160002060010160009054906101000a900460ff166002811115610f9457610f936130d6565b5b14610fd4576040517f08c379a0000000000000000000000000000000000000000000000000000000008152600401610fcb90613f14565b60405180910390fd5b6040518060400160405280838152602001826002811115610ff857610ff76130d6565b5b815250600460008573ffffffffffffffffffffffffffffffffffffffff1673ffffffffffffffffffffffffffffffffffffffff168152602001908152602001600020600082015181600001908161104f9190613bae565b5060208201518160010160006101000a81548160ff0219169083600281111561107b5761107a6130d6565b5b02179055509050506008839080600181540180825580915050600190039060005260206000200160009091909190916101000a81548173ffffffffffffffffffffffffffffffffffffffff021916908373ffffffffffffffffffffffffffffffffffffffff1602179055507f8897d4c16f6b907647cc92f3b2f80418ac81581b8e74f9dda595d3910b44c86283838360405161111993929190613f34565b60405180910390a160016002811115611135576111346130d6565b5b816002811115611148576111476130d6565b5b036111a6576001600560008573ffffffffffffffffffffffffffffffffffffffff1673ffffffffffffffffffffffffffffffffffffffff16815260200190815260200160002060006101000a81548160ff0219169083151502179055505b505050565b60056020528060005260406000206000915054906101000a900460ff1681565b6000600160028111156111e1576111e06130d6565b5b600460003373ffffffffffffffffffffffffffffffffffffffff1673ffffffffffffffffffffffffffffffffffffffff16815260200190815260200160002060010160009054906101000a900460ff166002811115611243576112426130d6565b5b14611283576040517f08c379a000000000000000000000000000000000000000000000000000000000815260040161127a90613d7a565b60405180910390fd5b600354905090565b6008818154811061129b57600080fd5b906000526020600020016000915054906101000a900473ffffffffffffffffffffffffffffffffffffffff1681565b600060608060606000806000600660008981526020019081526020016000209050806000015481600101826002018360030184600401548560050160009054906101000a900460ff1684805461131f906139d1565b80601f016020809104026020016040519081016040528092919081815260200182805461134b906139d1565b80156113985780601f1061136d57610100808354040283529160200191611398565b820191906000526020600020905b81548152906001019060200180831161137b57829003601f168201915b5050505050945083805480602002602001604051908101604052809291908181526020016000905b8282101561146c5783829060005260206000200180546113df906139d1565b80601f016020809104026020016040519081016040528092919081815260200182805461140b906139d1565b80156114585780601f1061142d57610100808354040283529160200191611458565b820191906000526020600020905b81548152906001019060200180831161143b57829003601f168201915b5050505050815260200190600101906113c0565b505050509350828054806020026020016040519081016040528092919081815260200182805480156114bd57602002820191906000526020600020905b8154815260200190600101908083116114a9575b505050505092509650965096509650965096505091939550919395565b60025481565b6006602052806000526040600020600091509050806000015490806001018054611509906139d1565b80601f0160208091040260200160405190810160405280929190818152602001828054611535906139d1565b80156115825780601f1061155757610100808354040283529160200191611582565b820191906000526020600020905b81548152906001019060200180831161156557829003601f168201915b5050505050908060040154908060050160009054906101000a900460ff16905084565b600160028111156115b9576115b86130d6565b5b600460003373ffffffffffffffffffffffffffffffffffffffff1673ffffffffffffffffffffffffffffffffffffffff16815260200190815260200160002060010160009054906101000a900460ff16600281111561161b5761161a6130d6565b5b1461165b576040517f08c379a000000000000000000000000000000000000000000000000000000000815260040161165290613d7a565b60405180910390fd5b60006006600083815260200190815260200160002090508060050160009054906101000a900460ff166116c3576040517f08c379a00000000000000000000000000000000000000000000000000000000081526004016116ba90613fbe565b60405180910390fd5b60008160050160006101000a81548160ff0219169083151502179055507fbc12589e76c0d59fd5a7c6f642c154830f0b46718b5ac07d1a0bdf29e124cbd88260405161170f919061318c565b60405180910390a15050565b6001600281111561172f5761172e6130d6565b5b600460003373ffffffffffffffffffffffffffffffffffffffff1673ffffffffffffffffffffffffffffffffffffffff16815260200190815260200160002060010160009054906101000a900460ff166002811115611791576117906130d6565b5b146117d1576040517f08c379a00000000000000000000000000000000000000000000000000000000081526004016117c890613d7a565b60405180910390fd5b6000600760008381526020019081526020016000209050600060028111156117fc576117fb6130d6565b5b8160050160009054906101000a900460ff1660028111156118205761181f6130d6565b5b14611860576040517f08c379a00000000000000000000000000000000000000000000000000000000081526004016118579061402a565b60405180910390fd5b806003015460035410156118a9576040517f08c379a00000000000000000000000000000000000000000000000000000000081526004016118a090614096565b60405180910390fd5b60018160050160006101000a81548160ff021916908360028111156118d1576118d06130d6565b5b02179055508060030154600360008282546118ec91906140b6565b925050819055508060010160009054906101000a900473ffffffffffffffffffffffffffffffffffffffff1673ffffffffffffffffffffffffffffffffffffffff166108fc82600301549081150290604051600060405180830381858888f19350505050158015611961573d6000803e3d6000fd5b507f8352ef271766639992ac1bce167b4588067d26f363afa41f45593b30e74501b682604051611991919061318c565b60405180910390a15050565b60008054906101000a900473ffffffffffffffffffffffffffffffffffffffff1681565b60076020528060005260406000206000915090508060000154908060010160009054906101000a900473ffffffffffffffffffffffffffffffffffffffff1690806002018054611a10906139d1565b80601f0160208091040260200160405190810160405280929190818152602001828054611a3c906139d1565b8015611a895780601f10611a5e57610100808354040283529160200191611a89565b820191906000526020600020905b815481529060010190602001808311611a6c57829003601f168201915b505050505090806003015490806004018054611aa4906139d1565b80601f0160208091040260200160405190810160405280929190818152602001828054611ad0906139d1565b8015611b1d5780601f10611af257610100808354040283529160200191611b1d565b820191906000526020600020905b815481529060010190602001808311611b0057829003601f168201915b5050505050908060050160009054906101000a900460ff16905086565b60016002811115611b4e57611b4d6130d6565b5b600460003373ffffffffffffffffffffffffffffffffffffffff1673ffffffffffffffffffffffffffffffffffffffff16815260200190815260200160002060010160009054906101000a900460ff166002811115611bb057611baf6130d6565b5b14611bf0576040517f08c379a0000000000000000000000000000000000000000000000000000000008152600401611be790613d7a565b60405180910390fd5b60006002811115611c0457611c036130d6565b5b600460008373ffffffffffffffffffffffffffffffffffffffff1673ffffffffffffffffffffffffffffffffffffffff16815260200190815260200160002060010160009054906101000a900460ff166002811115611c6657611c656130d6565b5b03611ca6576040517f08c379a0000000000000000000000000000000000000000000000000000000008152600401611c9d90614136565b60405180910390fd5b600460008273ffffffffffffffffffffffffffffffffffffffff1673ffffffffffffffffffffffffffffffffffffffff16815260200190815260200160002060008082016000611cf69190612bbf565b6001820160006101000a81549060ff0219169055505060005b600880549050811015611e92578173ffffffffffffffffffffffffffffffffffffffff1660088281548110611d4757611d46614156565b5b9060005260206000200160009054906101000a900473ffffffffffffffffffffffffffffffffffffffff1673ffffffffffffffffffffffffffffffffffffffff1603611e855760086001600880549050611da191906140b6565b81548110611db257611db1614156565b5b9060005260206000200160009054906101000a900473ffffffffffffffffffffffffffffffffffffffff1660088281548110611df157611df0614156565b5b9060005260206000200160006101000a81548173ffffffffffffffffffffffffffffffffffffffff021916908373ffffffffffffffffffffffffffffffffffffffff1602179055506008805480611e4b57611e4a614185565b5b6001900381819060005260206000200160006101000a81549073ffffffffffffffffffffffffffffffffffffffff02191690559055611e92565b8080600101915050611d0f565b507fe9dce8c992623ce791725b21e857e33248d1f190a25b5168313420eebdaae99d81604051611ec29190613308565b60405180910390a150565b60016002811115611ee157611ee06130d6565b5b600460003373ffffffffffffffffffffffffffffffffffffffff1673ffffffffffffffffffffffffffffffffffffffff16815260200190815260200160002060010160009054906101000a900460ff166002811115611f4357611f426130d6565b5b14611f83576040517f08c379a0000000000000000000000000000000000000000000000000000000008152600401611f7a90613d7a565b60405180910390fd5b600060076000838152602001908152602001600020905060006002811115611fae57611fad6130d6565b5b8160050160009054906101000a900460ff166002811115611fd257611fd16130d6565b5b14612012576040517f08c379a00000000000000000000000000000000000000000000000000000000081526004016120099061402a565b60405180910390fd5b60028160050160006101000a81548160ff0219169083600281111561203a576120396130d6565b5b02179055507f890e7ffbbca866355822706f4d9094a1802093f3bf5d49eca249cc19fd151a5e8260405161206e919061318c565b60405180910390a15050565b6001600281111561208e5761208d6130d6565b5b600460003373ffffffffffffffffffffffffffffffffffffffff1673ffffffffffffffffffffffffffffffffffffffff16815260200190815260200160002060010160009054906101000a900460ff1660028111156120f0576120ef6130d6565b5b14612130576040517f08c379a000000000000000000000000000000000000000000000000000000000815260040161212790613d7a565b60405180910390fd5b60003411612173576040517f08c379a000000000000000000000000000000000000000000000000000000000815260040161216a90613982565b60405180910390fd5b346003600082825461218591906141b4565b925050819055507f8fe10ae416f22f5e5220b0018a6c1d4ff534d6aa3a471f2a20cb7747fe63e5b933346040516121bd9291906141e8565b60405180910390a1565b60008060606000606060008060076000898152602001908152602001600020905080600001548160010160009054906101000a900473ffffffffffffffffffffffffffffffffffffffff16826002018360030154846004018560050160009054906101000a900460ff1683805461223d906139d1565b80601f0160208091040260200160405190810160405280929190818152602001828054612269906139d1565b80156122b65780601f1061228b576101008083540402835291602001916122b6565b820191906000526020600020905b81548152906001019060200180831161229957829003601f168201915b505050505093508180546122c9906139d1565b80601f01602080910402602001604051908101604052809291908181526020018280546122f5906139d1565b80156123425780601f1061231757610100808354040283529160200191612342565b820191906000526020600020905b81548152906001019060200180831161232557829003601f168201915b505050505091509650965096509650965096505091939550919395565b60006002811115612373576123726130d6565b5b600460003373ffffffffffffffffffffffffffffffffffffffff1673ffffffffffffffffffffffffffffffffffffffff16815260200190815260200160002060010160009054906101000a900460ff1660028111156123d5576123d46130d6565b5b03612415576040517f08c379a000000000000000000000000000000000000000000000000000000000815260040161240c90613884565b60405180910390fd5b60006006600084815260200190815260200160002090508060050160009054906101000a900460ff1661247d576040517f08c379a00000000000000000000000000000000000000000000000000000000081526004016124749061425d565b60405180910390fd5b80600401544211156124c4576040517f08c379a00000000000000000000000000000000000000000000000000000000081526004016124bb906142c9565b60405180910390fd5b8060060160003373ffffffffffffffffffffffffffffffffffffffff1673ffffffffffffffffffffffffffffffffffffffff16815260200190815260200160002060009054906101000a900460ff1615612553576040517f08c379a000000000000000000000000000000000000000000000000000000000815260040161254a90614335565b60405180910390fd5b8060020180549050821061259c576040517f08c379a0000000000000000000000000000000000000000000000000000000008152600401612593906143a1565b60405180910390fd5b8060030182815481106125b2576125b1614156565b5b9060005260206000200160008154809291906125cd90613ce6565b919050555060018160060160003373ffffffffffffffffffffffffffffffffffffffff1673ffffffffffffffffffffffffffffffffffffffff16815260200190815260200160002060006101000a81548160ff0219169083151502179055507f1abe610cf2bf87e57dcc1181fcf5ac0934e843d8344ab9eed6e86c799f62585e83338460405161265f93929190613c80565b60405180910390a1505050565b60015481565b606060006002811115612688576126876130d6565b5b600460008473ffffffffffffffffffffffffffffffffffffffff1673ffffffffffffffffffffffffffffffffffffffff16815260200190815260200160002060010160009054906101000a900460ff1660028111156126ea576126e96130d6565b5b0361272a576040517f08c379a00000000000000000000000000000000000000000000000000000000081526004016127219061440d565b60405180910390fd5b600460008373ffffffffffffffffffffffffffffffffffffffff1673ffffffffffffffffffffffffffffffffffffffff1681526020019081526020016000206000018054612777906139d1565b80601f01602080910402602001604051908101604052809291908181526020018280546127a3906139d1565b80156127f05780601f106127c5576101008083540402835291602001916127f0565b820191906000526020600020905b8154815290600101906020018083116127d357829003601f168201915b50505050509050919050565b60006006600084815260200190815260200160002060060160008373ffffffffffffffffffffffffffffffffffffffff1673ffffffffffffffffffffffffffffffffffffffff16815260200190815260200160002060009054906101000a900460ff16905092915050565b60606000805b60088054905081101561294f576000600281111561288e5761288d6130d6565b5b60046000600884815481106128a6576128a5614156565b5b9060005260206000200160009054906101000a900473ffffffffffffffffffffffffffffffffffffffff1673ffffffffffffffffffffffffffffffffffffffff1673ffffffffffffffffffffffffffffffffffffffff16815260200190815260200160002060010160009054906101000a900460ff16600281111561292e5761292d6130d6565b5b1461294257818061293e90613ce6565b9250505b808060010191505061286d565b5060008167ffffffffffffffff81111561296c5761296b612c6f565b5b60405190808252806020026020018201604052801561299a5781602001602082028036833780820191505090505b5090506000805b600880549050811015612b0f57600060028111156129c2576129c16130d6565b5b60046000600884815481106129da576129d9614156565b5b9060005260206000200160009054906101000a900473ffffffffffffffffffffffffffffffffffffffff1673ffffffffffffffffffffffffffffffffffffffff1673ffffffffffffffffffffffffffffffffffffffff16815260200190815260200160002060010160009054906101000a900460ff166002811115612a6257612a616130d6565b5b14612b025760088181548110612a7b57612a7a614156565b5b9060005260206000200160009054906101000a900473ffffffffffffffffffffffffffffffffffffffff16838381518110612ab957612ab8614156565b5b602002602001019073ffffffffffffffffffffffffffffffffffffffff16908173ffffffffffffffffffffffffffffffffffffffff16815250508180612afe90613ce6565b9250505b80806001019150506129a1565b5081935050505090565b828054828255906000526020600020908101928215612b61579160200282015b82811115612b60578251829081612b509190613bae565b5091602001919060010190612b39565b5b509050612b6e9190612bff565b5090565b828054828255906000526020600020908101928215612bae579160200282015b82811115612bad578251825591602001919060010190612b92565b5b509050612bbb9190612c23565b5090565b508054612bcb906139d1565b6000825580601f10612bdd5750612bfc565b601f016020900490600052602060002090810190612bfb9190612c23565b5b50565b5b80821115612c1f5760008181612c169190612bbf565b50600101612c00565b5090565b5b80821115612c3c576000816000905550600101612c24565b5090565b6000604051905090565b600080fd5b600080fd5b600080fd5b600080fd5b6000601f19601f8301169050919050565b7f4e487b7100000000000000000000000000000000000000000000000000000000600052604160045260246000fd5b612ca782612c5e565b810181811067ffffffffffffffff82111715612cc657612cc5612c6f565b5b80604052505050565b6000612cd9612c40565b9050612ce58282612c9e565b919050565b600067ffffffffffffffff821115612d0557612d04612c6f565b5b612d0e82612c5e565b9050602081019050919050565b82818337600083830152505050565b6000612d3d612d3884612cea565b612ccf565b905082815260208101848484011115612d5957612d58612c59565b5b612d64848285612d1b565b509392505050565b600082601f830112612d8157612d80612c54565b5b8135612d91848260208601612d2a565b91505092915050565b6000819050919050565b612dad81612d9a565b8114612db857600080fd5b50565b600081359050612dca81612da4565b92915050565b600080600060608486031215612de957612de8612c4a565b5b600084013567ffffffffffffffff811115612e0757612e06612c4f565b5b612e1386828701612d6c565b9350506020612e2486828701612dbb565b925050604084013567ffffffffffffffff811115612e4557612e44612c4f565b5b612e5186828701612d6c565b9150509250925092565b600067ffffffffffffffff821115612e7657612e75612c6f565b5b602082029050602081019050919050565b600080fd5b6000612e9f612e9a84612e5b565b612ccf565b90508083825260208201905060208402830185811115612ec257612ec1612e87565b5b835b81811015612f0957803567ffffffffffffffff811115612ee757612ee6612c54565b5b808601612ef48982612d6c565b85526020850194505050602081019050612ec4565b5050509392505050565b600082601f830112612f2857612f27612c54565b5b8135612f38848260208601612e8c565b91505092915050565b600080600060608486031215612f5a57612f59612c4a565b5b600084013567ffffffffffffffff811115612f7857612f77612c4f565b5b612f8486828701612d6c565b935050602084013567ffffffffffffffff811115612fa557612fa4612c4f565b5b612fb186828701612f13565b9250506040612fc286828701612dbb565b9150509250925092565b600073ffffffffffffffffffffffffffffffffffffffff82169050919050565b6000612ff782612fcc565b9050919050565b61300781612fec565b811461301257600080fd5b50565b60008135905061302481612ffe565b92915050565b6000602082840312156130405761303f612c4a565b5b600061304e84828501613015565b91505092915050565b600081519050919050565b600082825260208201905092915050565b60005b83811015613091578082015181840152602081019050613076565b60008484015250505050565b60006130a882613057565b6130b28185613062565b93506130c2818560208601613073565b6130cb81612c5e565b840191505092915050565b7f4e487b7100000000000000000000000000000000000000000000000000000000600052602160045260246000fd5b60038110613116576131156130d6565b5b50565b600081905061312782613105565b919050565b600061313782613119565b9050919050565b6131478161312c565b82525050565b60006040820190508181036000830152613167818561309d565b9050613176602083018461313e565b9392505050565b61318681612d9a565b82525050565b60006020820190506131a1600083018461317d565b92915050565b60006020820190506131bc600083018461313e565b92915050565b600080604083850312156131d9576131d8612c4a565b5b60006131e785828601612dbb565b92505060206131f885828601613015565b9150509250929050565b60008115159050919050565b61321781613202565b82525050565b6000602082019050613232600083018461320e565b92915050565b6003811061324557600080fd5b50565b60008135905061325781613238565b92915050565b60008060006060848603121561327657613275612c4a565b5b600061328486828701613015565b935050602084013567ffffffffffffffff8111156132a5576132a4612c4f565b5b6132b186828701612d6c565b92505060406132c286828701613248565b9150509250925092565b6000602082840312156132e2576132e1612c4a565b5b60006132f084828501612dbb565b91505092915050565b61330281612fec565b82525050565b600060208201905061331d60008301846132f9565b92915050565b600081519050919050565b600082825260208201905092915050565b6000819050602082019050919050565b600082825260208201905092915050565b600061336b82613057565b613375818561334f565b9350613385818560208601613073565b61338e81612c5e565b840191505092915050565b60006133a58383613360565b905092915050565b6000602082019050919050565b60006133c582613323565b6133cf818561332e565b9350836020820285016133e18561333f565b8060005b8581101561341d57848403895281516133fe8582613399565b9450613409836133ad565b925060208a019950506001810190506133e5565b50829750879550505050505092915050565b600081519050919050565b600082825260208201905092915050565b6000819050602082019050919050565b61346481612d9a565b82525050565b6000613476838361345b565b60208301905092915050565b6000602082019050919050565b600061349a8261342f565b6134a4818561343a565b93506134af8361344b565b8060005b838110156134e05781516134c7888261346a565b97506134d283613482565b9250506001810190506134b3565b5085935050505092915050565b600060c082019050613502600083018961317d565b8181036020830152613514818861309d565b9050818103604083015261352881876133ba565b9050818103606083015261353c818661348f565b905061354b608083018561317d565b61355860a083018461320e565b979650505050505050565b6000608082019050613578600083018761317d565b818103602083015261358a818661309d565b9050613599604083018561317d565b6135a6606083018461320e565b95945050505050565b60006135ba82612fcc565b9050919050565b6135ca816135af565b82525050565b600381106135e1576135e06130d6565b5b50565b60008190506135f2826135d0565b919050565b6000613602826135e4565b9050919050565b613612816135f7565b82525050565b600060c08201905061362d600083018961317d565b61363a60208301886135c1565b818103604083015261364c818761309d565b905061365b606083018661317d565b818103608083015261366d818561309d565b905061367c60a0830184613609565b979650505050505050565b600060c08201905061369c600083018961317d565b6136a960208301886132f9565b81810360408301526136bb818761309d565b90506136ca606083018661317d565b81810360808301526136dc818561309d565b90506136eb60a0830184613609565b979650505050505050565b6000806040838503121561370d5761370c612c4a565b5b600061371b85828601612dbb565b925050602061372c85828601612dbb565b9150509250929050565b60006020820190508181036000830152613750818461309d565b905092915050565b600081519050919050565b600082825260208201905092915050565b6000819050602082019050919050565b61378d81612fec565b82525050565b600061379f8383613784565b60208301905092915050565b6000602082019050919050565b60006137c382613758565b6137cd8185613763565b93506137d883613774565b8060005b838110156138095781516137f08882613793565b97506137fb836137ab565b9250506001810190506137dc565b5085935050505092915050565b6000602082019050818103600083015261383081846137b8565b905092915050565b7f4e6f7420617574686f72697a6564000000000000000000000000000000000000600082015250565b600061386e600e83613062565b915061387982613838565b602082019050919050565b6000602082019050818103600083015261389d81613861565b9050919050565b7f4f6e6c7920637573746f6d6572732063616e206372656174652077697468647260008201527f6177616c20726571756573747300000000000000000000000000000000000000602082015250565b6000613900602d83613062565b915061390b826138a4565b604082019050919050565b6000602082019050818103600083015261392f816138f3565b9050919050565b7f416d6f756e74206d7573742062652067726561746572207468616e207a65726f600082015250565b600061396c602083613062565b915061397782613936565b602082019050919050565b6000602082019050818103600083015261399b8161395f565b9050919050565b7f4e487b7100000000000000000000000000000000000000000000000000000000600052602260045260246000fd5b600060028204905060018216806139e957607f821691505b6020821081036139fc576139fb6139a2565b5b50919050565b60008190508160005260206000209050919050565b60006020601f8301049050919050565b600082821b905092915050565b600060088302613a647fffffffffffffffffffffffffffffffffffffffffffffffffffffffffffffffff82613a27565b613a6e8683613a27565b95508019841693508086168417925050509392505050565b6000819050919050565b6000613aab613aa6613aa184612d9a565b613a86565b612d9a565b9050919050565b6000819050919050565b613ac583613a90565b613ad9613ad182613ab2565b848454613a34565b825550505050565b600090565b613aee613ae1565b613af9818484613abc565b505050565b5b81811015613b1d57613b12600082613ae6565b600181019050613aff565b5050565b601f821115613b6257613b3381613a02565b613b3c84613a17565b81016020851015613b4b578190505b613b5f613b5785613a17565b830182613afe565b50505b505050565b600082821c905092915050565b6000613b8560001984600802613b67565b1980831691505092915050565b6000613b9e8383613b74565b9150826002028217905092915050565b613bb782613057565b67ffffffffffffffff811115613bd057613bcf612c6f565b5b613bda82546139d1565b613be5828285613b21565b600060209050601f831160018114613c185760008415613c06578287015190505b613c108582613b92565b865550613c78565b601f198416613c2686613a02565b60005b82811015613c4e57848901518255600182019150602085019450602081019050613c29565b86831015613c6b5784890151613c67601f891682613b74565b8355505b6001600288020188555050505b505050505050565b6000606082019050613c95600083018661317d565b613ca260208301856132f9565b613caf604083018461317d565b949350505050565b7f4e487b7100000000000000000000000000000000000000000000000000000000600052601160045260246000fd5b6000613cf182612d9a565b91507fffffffffffffffffffffffffffffffffffffffffffffffffffffffffffffffff8203613d2357613d22613cb7565b5b600182019050919050565b7f4e6f742061206d616e6167657200000000000000000000000000000000000000600082015250565b6000613d64600d83613062565b9150613d6f82613d2e565b602082019050919050565b60006020820190508181036000830152613d9381613d57565b9050919050565b7f4174206c656173742074776f206f7074696f6e73207265717569726564000000600082015250565b6000613dd0601d83613062565b9150613ddb82613d9a565b602082019050919050565b60006020820190508181036000830152613dff81613dc3565b9050919050565b7f436c6f73696e672064617465206d75737420626520696e20746865206675747560008201527f7265000000000000000000000000000000000000000000000000000000000000602082015250565b6000613e62602283613062565b9150613e6d82613e06565b604082019050919050565b60006020820190508181036000830152613e9181613e55565b9050919050565b6000604082019050613ead600083018561317d565b8181036020830152613ebf818461309d565b90509392505050565b7f5573657220616c72656164792065786973747300000000000000000000000000600082015250565b6000613efe601383613062565b9150613f0982613ec8565b602082019050919050565b60006020820190508181036000830152613f2d81613ef1565b9050919050565b6000606082019050613f4960008301866132f9565b8181036020830152613f5b818561309d565b9050613f6a604083018461313e565b949350505050565b7f566f746520616c726561647920636c6f73656400000000000000000000000000600082015250565b6000613fa8601383613062565b9150613fb382613f72565b602082019050919050565b60006020820190508181036000830152613fd781613f9b565b9050919050565b7f52657175657374206973206e6f7420696e2070726f6365737300000000000000600082015250565b6000614014601983613062565b915061401f82613fde565b602082019050919050565b6000602082019050818103600083015261404381614007565b9050919050565b7f496e73756666696369656e7420636f6d70616e792062616c616e636500000000600082015250565b6000614080601c83613062565b915061408b8261404a565b602082019050919050565b600060208201905081810360008301526140af81614073565b9050919050565b60006140c182612d9a565b91506140cc83612d9a565b92508282039050818111156140e4576140e3613cb7565b5b92915050565b7f5573657220646f6573206e6f7420657869737400000000000000000000000000600082015250565b6000614120601383613062565b915061412b826140ea565b602082019050919050565b6000602082019050818103600083015261414f81614113565b9050919050565b7f4e487b7100000000000000000000000000000000000000000000000000000000600052603260045260246000fd5b7f4e487b7100000000000000000000000000000000000000000000000000000000600052603160045260246000fd5b60006141bf82612d9a565b91506141ca83612d9a565b92508282019050808211156141e2576141e1613cb7565b5b92915050565b60006040820190506141fd60008301856132f9565b61420a602083018461317d565b9392505050565b7f566f746520697320636c6f736564000000000000000000000000000000000000600082015250565b6000614247600e83613062565b915061425282614211565b602082019050919050565b600060208201905081810360008301526142768161423a565b9050919050565b7f566f74696e6720706572696f642068617320656e646564000000000000000000600082015250565b60006142b3601783613062565b91506142be8261427d565b602082019050919050565b600060208201905081810360008301526142e2816142a6565b9050919050565b7f416c726561647920766f74656420696e207468697320766f7465000000000000600082015250565b600061431f601a83613062565b915061432a826142e9565b602082019050919050565b6000602082019050818103600083015261434e81614312565b9050919050565b7f496e76616c6964206f7074696f6e000000000000000000000000000000000000600082015250565b600061438b600e83613062565b915061439682614355565b602082019050919050565b600060208201905081810360008301526143ba8161437e565b9050919050565b7f55736572206e6f7420666f756e64000000000000000000000000000000000000600082015250565b60006143f7600e83613062565b9150614402826143c1565b602082019050919050565b60006020820190508181036000830152614426816143ea565b905091905056fea2646970667358221220d678d03319ff5c07c4eb964c6015e6bfd849fdd359b43745833c32d6ed0748f364736f6c634300081b0033",
  "linkReferences": {},
  "deployedLinkReferences": {}
}